:100000000C9453010C947A180C9453180C94181AED
:100010000C94181A0C94181A0C947B010C947B0104
:100020000C947B010C947B010C947B010C947B0160
:100030000C947B010C947B010C947B010C947B0150
:100040000C9409180C947B010C94C7180C94A118FB
:100050000C947B010C947B010C947B010C947B0130
:100060000C94F9180C947B0105A84CCDB2D44EB970
:100070003836A9020C50B9918688083CA6AAAA2A4B
:10008000BE000000803F7C3C3E5E2B3D3F2F5B5D11
:100090003B2C2A225C0023205344206F70656E2085
:1000A0006661696C65640023204C6F6767696E67E1
:1000B0003A20004D532C52504D2C53504545442C62
:1000C0005448522C42524B2C434C542C42415454D1
:1000D0002C4146522C4C41542C4C4F4E2C475053E3
:1000E0005F5350442C4750535F414C542C53415460
:1000F000532C4649582C41582C41592C415A2C47D5
:100100004541522C434C555443482C54312C5432C5
:100110002C54332C5434002320534420696E6974CA
:10012000206661696C6564006E6F7420666F756E21
:1001300064004F4B002320494D553A20003A20756A
:100140006E6B6E6F776E204944003A204F4B002350
:100150002054656D7000206E6F7420666F756E643C
:1001600000232054656D7000232056535320696E80
:10017000746572727570742061726D6564202844B4
:1001800032290023205265616479002320435356AD
:100190003A2052504D2C53504545442C5448524F10
:1001A00054544C452C4252414B452C434C542C4FFB
:1001B000494C2C4C41542C4C4F4E2C4750535F53C0
:1001C00050442C4750535F534154532C41582C41B9
:1001D000592C415A2C474541522C434C55544348C5
:1001E0002C54312C54322C54332C543400232047BB
:1001F000505320536F6674776172655365726961FD
:100200006C2073746172746564004C4956452053C8
:10021000454E534F52530053494D554C4154494F4D
:100220004E0023204D6F64653A2000232052616305
:10023000652044617368204E616E6F207374617233
:1002400074696E672E2E2E00000000002400270027
:100250002A0000000008000201000003040700005B
:10026000000000000000000000002300260029001C
:1002700000000000250028002B00040404040404EE
:100280000404020202020202030303030303010245
:100290000408102040800102040810200102040814
:1002A0001020901A992E11241FBECFEFD8E0DEBF88
:1002B000CDBF11E0A0E0B1E0EEEAFEE602C005909D
:1002C0000D92AC3BB107D9F727E0ACEBB1E001C030
:1002D0001D92AA38B207E1F711E0C2E5D1E004C0EF
:1002E0002197FE010E941C30C135D107C9F70E9439
:1002F000631C0C944A370C9400009091A0038091E9
:100300009F032FEF3FEF981748F4E92FF0E0E158F3
:10031000FC4F208130E09F5F9093A003C9010895B6
:100320009091A00380919F032FEF3FEF981748F41F
:10033000E92FF0E0E158FC4F208130E09F5F90937F
:10034000A003C901089591E090932F038093510376
:1003500010923003109252030895833081F028F4F4
:10036000813099F08230A9F008958730A9F0883063
:10037000C9F08430B1F4809180008F7D03C08091FA
:1003800080008F7780938000089584B58F7784BD37
:10039000089584B58F7DFBCF8091B0008F778093D7
:1003A000B00008958091B0008F7DF9CFCF93DF9397
:1003B000282F30E0F901EE5AFD4F8491F901E25700
:1003C000FD4FD491F901E658FD4FC491CC23A1F023
:1003D00081110E94AD01EC2FF0E0EE0FFF1FEA59F2
:1003E000FD4FA591B491EC91ED2381E090E009F4EB
:1003F00080E0DF91CF91089580E090E0FACF1F93E5
:10040000CF93DF93282F30E0F901EE5AFD4F84910E
:10041000F901E257FD4FD491F901E658FD4FC4911F
:10042000CC23A9F0162F81110E94AD01EC2FF0E032
:10043000EE0FFF1FE059FD4FA591B4918FB7F894CF
:10044000EC91111108C0D095DE23DC938FBFDF91B2
:10045000CF911F910895DE2BF8CFCF93DF9390E0DB
:10046000FC01E257FD4F249186589D4FFC01849179
:100470008823C9F090E0880F991FFC01E85BFD4FCD
:10048000A591B491FC01E059FD4FC591D491611142
:100490000DC09FB7F8948C91209582238C9388810E
:1004A000282328839FBFDF91CF910895623051F4B4
:1004B0009FB7F8943C91822F809583238C93E88199
:1004C0002E2BEFCF8FB7F894EC912E2B2C938FBF60
:1004D000EACF3FB7F89480912B0390912C03A09121
:1004E0002D03B0912E0326B5A89B05C02F3F19F010
:1004F0000196A11DB11D3FBFBA2FA92F982F8827A4
:10050000BC01CD01620F711D811D911D42E0660F7E
:10051000771F881F991F4A95D1F708958F929F9250
:10052000AF92BF92CF92DF92EF92FF920E94690248
:100530004B015C018AE0C82ED12CE12CF12C0E94E9
:100540006902681979098A099B09683E7340810527
:100550009105A8F321E0C21AD108E108F10888EE5C
:10056000880E83E0981EA11CB11CC114D104E104C3
:10057000F10429F7FF90EF90DF90CF90BF90AF90FC
:100580009F908F9008952FB7F894609127037091F2
:1005900028038091290390912A032FBF0895809109
:1005A0009F039091A003891B990B0895CF92DF922E
:1005B000EF92FF920F931F930E9469020091A8028D
:1005C0001091A9022091AA023091AB026B017C012B
:1005D000C01AD10AE20AF30A97018601083C110504
:1005E0002105310598F00093AD021093AE022093DF
:1005F000AF023093B0026093A8027093A902809377
:10060000AA029093AB0281E08093AC021F910F91FC
:10061000FF90EF90DF90CF9008950895089508958A
:10062000DC01ED91FC910190F081E02D0994EF92B5
:10063000FF920F931F93CF93DF938C017B01D0E048
:10064000C0E0F701EC0FFD1F6491662361F0D80153
:10065000ED91FC910190F081E02DC8010995892B65
:1006600011F02196EECFCE01DF91CF911F910F9126
:10067000FF90EF900895AF92BF92CF92DF92EF92EA
:10068000FF920F931F93CF93DF936C017B018B013C
:10069000040F151FEB015E01AE18BF08C017D1078C
:1006A00059F06991D601ED91FC910190F081E02D16
:1006B000C6010995892B79F7C501DF91CF911F916B
:1006C0000F91FF90EF90DF90CF90BF90AF90089583
:1006D000FC01538D448D252F30E0842F90E0821B48
:1006E000930B541710F0CF96089501970895FC01CD
:1006F000918D828D981761F0A28DAE0FBF2FB11D25
:100700005D968C91928D9F5F9F73928F90E008957C
:100710008FEF9FEF0895FC01918D828D981731F036
:10072000828DE80FF11D858D90E008958FEF9FEF8A
:100730000895FC01918D228D892F90E0805C9F4F60
:10074000821B91098F739927089583EA95E00E948F
:10075000990321E0892B09F420E0822F089580E09D
:1007600090E0892B29F00E94A50381110C940000D0
:100770000895FC01A48DA80FB92FB11DA35ABF4F36
:100780002C91848D90E001968F739927848FA68990
:10079000B7892C93A089B1898C91837080648C93E4
:1007A000938D848D981306C00288F389E02D808193
:1007B0008F7D80830895EF92FF920F931F93CF93C5
:1007C000DF93EC0181E0888F9B8D8C8D98131AC08C
:1007D000E889F989808185FF15C09FB7F894EE8973
:1007E000FF896083E889F9898081837080648083D0
:1007F0009FBF81E090E0DF91CF911F910F91FF901B
:10080000EF900895F62E0B8D10E00F5F1F4F0F73C2
:100810001127E02E8C8D8E110CC00FB607FCFACF7D
:10082000E889F989808185FFF5CFCE010E94B9035F
:10083000F1CFEB8DEC0FFD2FF11DE35AFF4FF0824E
:100840009FB7F8940B8FEA89FB8980818062CFCFB4
:10085000CF93DF93EC01888D8823B9F0AA89BB89F7
:10086000E889F9898C9185FD03C0808186FD0DC0E2
:100870000FB607FCF7CF8C9185FFF2CF808185FF03
:10088000EDCFCE010E94B903E9CFDF91CF9108955A
:1008900020912402260F3327331F21323105ECF437
:1008A00020917903FC0190E080E0243069F082E03F
:1008B0000895A09124022191AC014C5F5D4FA40FDB
:1008C000B52FB11D2C930196861798F380912402C1
:1008D000680F6093240280E0089581E008951092EB
:1008E000790381E0809378031092730361E082E1E1
:1008F0000E94FF0161E083E10E94FF01E9EBF0E06B
:1009000080818E7F808380818D7F808388E4809347
:10091000B80085E48093BC000895CF93DF9391E005
:10092000909303028823B9F0C091B800D091BA0027
:100930008091BC008A7B8093BC0060E082E10E94D1
:10094000FF0160E083E10E94FF010E946F04D093E9
:10095000BA00C093B800DF91CF910895CF92DF9293
:10096000EF92FF920F931F93CF93DF93D82FC62F51
:10097000613208F098C00E9469026B017C0180918D
:10098000790381116BC081E08093790380937803B0
:100990009FEF90937703109276039C0F90937503CB
:1009A0008093740380917403DD0FD82BD09374036C
:1009B00080917303813009F078C0109273030E9414
:1009C00069026B017C01809174038093BB0080916C
:1009D0007B0390917C03A0917D03B0917E03892BD2
:1009E0008A2B8B2BA1F00E94690200917B0310914E
:1009F0007C0320917D0330917E036C197D098E0963
:100A00009F09061717072807390708F448C080917F
:100A1000BC0083FDD8CF85EC8093BC000E946902A6
:100A20006B017C0180917903813009F440C0809191
:100A300076038C1710F4C0917603E3E5F3E0AFE79B
:100A4000B3E080E08C1355C08C2FDF91CF911F91C4
:100A50000F91FF90EF90DF90CF90089580917B03EE
:100A600090917C03A0917D03B0917E03892B8A2B0A
:100A70008B2B09F484CF0E94690200917B031091B3
:100A80007C0320917D0330917E036C197D098E09D2
:100A90009F09061717072807390708F070CF8091BC
:100AA0007A030E948D04C0E0CFCF85EEB5CF809150
:100AB0007B0390917C03A0917D03B0917E03892BF1
:100AC0008A2B8B2B09F4AECF0E94690200917B0325
:100AD00010917C0320917D0330917E036C197D0978
:100AE0008E099F09061717072807390708F09ACFBC
:100AF000D6CF91919D938F5FA5CF8F929F92AF920A
:100B0000BF92CF92DF92EF92FF920F931F93CF93FA
:100B1000DF93D0915203D13208F0D7C0182FC09183
:100B200051030E9469026B017C018091790381115C
:100B30006BC082E080937903109378038FEF8093EA
:100B4000770310927603D0937503A1E3B3E0E3E556
:100B5000F3E080E0D81391C0109274038091740385
:100B6000CC0FC82BC093740380917303813009F0BC
:100B700088C0109273030E9469026B017C0180910E
:100B800074038093BB0080917B0390917C03A091C0
:100B90007D03B0917E03892B8A2B8B2BA1F00E94C1
:100BA000690200917B0310917C0320917D033091B9
:100BB0007E036C197D098E099F0906171707280700
:100BC000390708F442C08091BC0083FDD8CF85EC82
:100BD0008093BC000E9469026B017C0180917903C3
:100BE000823009F450C0809177038F3F09F46FC0C1
:100BF00080917703803209F46CC080917703803351
:100C000009F469C084E026C080917B0390917C0345
:100C1000A0917D03B0917E03892B8A2B8B2B09F445
:100C200084CF0E94690280907B0390907C03A09007
:100C30007D03B0907E036C197D098E099F0986168D
:100C40009706A806B90608F070CF80917A030E9433
:100C50008D0485E0109230031092520310922F03FE
:100C6000DF91CF911F910F91FF90EF90DF90CF9088
:100C7000BF90AF909F908F9008959D9191938F5FBB
:100C800069CF85EEA5CF80917B0390917C03A091E5
:100C90007D03B0917E03892B8A2B8B2B09F49ECF89
:100CA0000E94690200917B0310917C0320917D03D7
:100CB00030917E036C197D098E099F09061717076D
:100CC0002807390708F08ACFC0CF81E0C3CF80E082
:100CD000C1CF82E0BFCF83E0BDCF0895E091A003F4
:100CE00080919F03E81730F4F0E0E158FC4F8081D9
:100CF00090E008958FEF9FEF0895CF92DF92EF92EB
:100D0000FF920F931F93CF93DF937C01CB018A0156
:100D100020912F03222389F0EB016B01C40ED51E15
:100D2000CC15DD0569F06991D701ED91FC91019039
:100D3000F081E02DC7010995F3CF642F0E9448048C
:100D4000C801DF91CF911F910F91FF90EF90DF903D
:100D5000CF900895CF93DF931F92CDB7DEB769830D
:100D600020912F032223F9F020915203203258F0D2
:100D700021E030E0FC013383228390E080E00F909B
:100D8000DF91CF91089580913003E82FF0E0EF5C80
:100D9000FC4F998190838F5F80933003809352033F
:100DA00081E090E0ECCF61E0CE0101960E94480422
:100DB000F7CF682F80E496E00C94AA0620914902B0
:100DC00030914A022817390771F4909147028091B7
:100DD0004802981741F0E0914702F0E0ED53FE4FD2
:100DE000808190E008958FEF9FEF0895EF92FF923A
:100DF0000F931F93CF93DF93DC015C96ED90FC90F3
:100E00005D97E114F10479F481E090E013969C93EE
:100E10008E93129790E080E0DF91CF911F910F9118
:100E2000FF90EF9008955196ED91FC915297509656
:100E30008C915097982F90950FB75E962C915E9756
:100E4000122F127021FD6095F8942081112319F161
:100E5000282B2083E7012197F1F728E0462F50E067
:100E6000308160FF1AC0382B3083E7012197F1F7FA
:100E7000BA0175956795215089F7112381F080811A
:100E8000892380830FBF5C968D919C910197F1F728
:100E900081E090E0C1CF2923DCCF3923E5CF9081D9
:100EA000892BEFCF2091490230914A022817390748
:100EB00061F4809148022091470290E0805C9F4F4E
:100EC000821B91098F739927089590E080E008951F
:100ED0002091490230914A0228173907B9F49091BC
:100EE000470280914802981789F0E0914702F0E0AC
:100EF000ED53FE4F80812091470230E02F5F3F4F3E
:100F00002F7333272093470290E008958FEF9FEFD0
:100F1000089590E080E008958FB7F8948091BD0126
:100F20008FBF089561E0FC0184810E94FF018091E0
:100F3000BC0181111092BC0108958EBD00000DB45A
:100F400007FEFDCF8EB508958FEF0C949D070F938C
:100F50001F93CF93DF93EC010E94C3028B010E9489
:100F6000A4078F3F69F00E94C302601B710B6C17CE
:100F70007D07A8F380E0DF91CF911F910F91089535
:100F800081E0F9CF8CBD9DBD0895CF93DF93EC0137
:100F90008091BC01811109C081E08093BC018091E6
:100FA0004C0690914D060E94C20760E08C81DF9153
:100FB000CF910C94FF018F929F92AF92BF92FF92BC
:100FC0000F931F93CF93DF93EC01F62E49015A0143
:100FD0008E81882389F08F8198859C012F5F3F4FF8
:100FE00038872F838230924018F40E94A407F3CFF1
:100FF000CE010E9492071E82CE010E94C5078CE29C
:1010000091E00E94A7078F2D80640E949D0708E150
:1010100010E0D501C401002E04C0B695A7959795A0
:1010200087950A94D2F70E949D0708501109083F3E
:101030008FEF180771F785E9FF2021F028E087E896
:10104000F2128FEF0E949D0710E00E94A4078A878A
:1010500087FF04C01F3F11F01F5FF7CFDF91CF91D3
:101060001F910F91FF90BF90AF909F908F90089528
:10107000AF92BF92CF92DF92EF92FF920F931F93A6
:10108000CF93DF93EC016901C801820F931F813078
:10109000924050F58E81882379F088819981AA81C8
:1010A000BB8184179507A607B70731F48F81988510
:1010B000C816D90608F042C0488359836A837B83E7
:1010C0008B85833039F089E0440F551F661F771FE9
:1010D0008A95D1F79A01AB0161E1CE010E94DB074D
:1010E000882389F083E08D83CE010E94920780E0FF
:1010F000DF91CF911F910F91FF90EF90DF90CF90F4
:10110000BF90AF9008950E94C3025B010E94A407A4
:101110008A878F3F69F40E94C3026A197B096D3286
:101120007140A0F38FE08D83CE010E949207DCCF47
:101130008E3F89F418861F8281E08E838F81988587
:101140008C159D0550F40E94A4078F819885019607
:1011500098878F83F3CF8DE0E6CF6701E00EF11E15
:101160000E94A407F60181936F01EE15FF05C1F7F8
:101170008F819885080F191F18870F838985882309
:1011800019F001151240A0F08E81882389F08F811B
:1011900098859C012F5F3F4F38872F838230924084
:1011A00018F40E94A407F3CFCE010E9492071E827A
:1011B00081E09ECFCF92DF92EF92FF920F93CF9379
:1011C000DF93EC01690182E141155105610571056B
:1011D00099F08B85833039F089E0440F551F661FE5
:1011E000771F8A95D1F79A01AB0168E1CE010E9481
:1011F000DB07882319F084E08D832DC08EEF0E94D9
:101200009D0776018EEFD81AF70181917F010E9428
:101210009D07EC14FD04C1F78FEF0E949D078FEF2F
:101220000E949D070E94A4078A878F71853071F400
:10123000011116C0CE010E94920781E0DF91CF918B
:101240000F91FF90EF90DF90CF90089581E18D8313
:10125000CE010E949207CE010E94920780E0EECF5D
:1012600088E592E00E94A707811102C085E1C4CF02
:1012700020E030E0A9016DE0CE010E94DB07882369
:1012800011F084E1B9CF0E94A4078111FACFD2CF27
:101290000F934091BF015091C0016091C1017091C5
:1012A000C201411551056105710599F0082F21EA28
:1012B00033E08091A1059091A2050E94DA0888236D
:1012C00049F01092BF011092C0011092C10110921A
:1012D000C20181E00F9108950F93CF93C82F8091A1
:1012E000BE01811105C0C1E08C2FCF910F910895EF
:1012F0004091000150910101609102017091030140
:101300000C2F21EA33E08091A1059091A2050E9463
:10131000DA08811102C0C0E0E7CFCC2321F381E0DD
:101320000E9448098823B9F31092BE01DDCF8F9245
:101330009F92AF92BF92EF92FF920F931F93CF9322
:101340004B015C01C42F8091000190910101A0919B
:101350000201B091030188159905AA05BB0551F159
:1013600081E00E946C0981110BC080E0CF911F9138
:101370000F91FF90EF90BF90AF909F908F90089546
:1013800081EAE82E83E0F82E00E012E030E020E071
:10139000B501A4018091A1059091A2050E94380891
:1013A000882319F38092000190920101A09202011A
:1013B000B09203014091BE014C2B4093BE0181E0ED
:1013C000D5CF8F929F92AF92BF92CF92DF92EF9242
:1013D000FF92CF932EE436E03093A2052093A1052F
:1013E000882309F46DC040E060E070E0CB010E940A
:1013F000970981110BC080E0CF91FF90EF90DF90B3
:10140000CF90BF90AF909F908F90089580915F058F
:101410008F7789F780916B0590916C05A0916D0590
:10142000B0916E0584369105A105B10520F3C090F9
:101430006705D0906805E0906905F0906A05C114D1
:10144000D104E104F104B9F240E0C701B6010E9401
:101450009709882381F28091AC039091AD038115A7
:10146000924049F6A091B103AA2329F26091AF03FB
:101470007091B0036115710509F4BDCF2091AE03E1
:10148000222309F4B8CFA0936C0620935E0690E067
:1014900080E030E0E1E0F0E0C82FAF01082E02C0AC
:1014A000440F551F0A94E2F72417350769F041E00D
:1014B000480F01968930910579F7409367069BCFD5
:1014C000C12CD12C7601C0CF809367062091B70341
:1014D0003091B80350E040E02115310541F42091EE
:1014E000C5033091C6034091C7035091C8032093B0
:1014F0005F06309360064093610650936206460192
:101500005701860E971EA11CB11C80926D06909209
:101510006E06A0926F06B0927006E091B203F09151
:10152000B303F0937306E0937206B0E00E94B42F09
:10153000DC01CB01880D991DAA1DBB1D809374068B
:1015400090937506A0937606B093770625E0EE0F8C
:10155000FF1F2A95E1F7E150FE4FEF2FFF27E69599
:101560008E0F9F1FA11DB11D809368069093690681
:10157000A0936A06B0936B068090B4039090B50375
:10158000B12CA12C8114910441F48090C10390905E
:10159000C203A090C303B090C403C81AD90AEA0AD0
:1015A000FB0AC80CD91CEA1CFB1C04C0F694E79487
:1015B000D794C794CA95D2F7C0926306D0926406B6
:1015C000E0926506F092660685EFC8168FE0D806B1
:1015D000E104F10428F48CE08093710681E00CCFE3
:1015E00080E125EFC2162FEFD206E104F104A0F34B
:1015F0008091CD039091CE03A091CF03B091D00301
:101600008093740690937506A0937606B093770640
:1016100080E2E2CF4F925F926F927F928F929F9281
:10162000AF92BF92CF92DF92EF92FF920F931F93F0
:10163000CF93DF93EC01423051056105710590F4C1
:1016400080E0DF91CF911F910F91FF90EF90DF909D
:10165000CF90BF90AF909F908F907F906F905F9052
:101660004F90089589859A85AB85BC850196A11D0B
:10167000B11D84179507A607B70710F3CB88DC8840
:10168000ED88FE888F89803109F042C0BB27A72FE3
:10169000962F852F480159012A013B01C80ED91EFA
:1016A000EA1EFB1E8091000190910101A0910201B0
:1016B000B0910301C816D906EA06FB0699F58F8991
:1016C0008031C1F5B301A201552766277727440F62
:1016D000551F4F555C4FFA01918280828091BE0167
:1016E00081608093BE018A89823080F08D819E81E5
:1016F000AF81B8858C0D9D1DAE1DBF1D8093BF01B0
:101700009093C001A093C101B093C20181E099CF31
:10171000DB01CA01E7E0B695A79597958795EA950D
:10172000D1F7B8CF40E0C701B6010E9497098111F7
:10173000C6CF86CFB301A2014F77552766277727FB
:10174000440F551F440F551F4F555C4FFA018082BF
:101750009182A282B382C2CF8F929F92AF92BF92A8
:10176000CF92DF92EF92FF920F931F93CF93DF936D
:10177000FC0181859285A385B4850196A11DB11DCB
:1017800084179507A607B70770F480E0DF91CF9123
:101790001F910F91FF90EF90DF90CF90BF90AF908F
:1017A0009F908F90089583889488A588B6888789AC
:1017B000803189F5BB27A72F962F852FE9016A0174
:1017C0007B018F01BC01CD01680D791D8A1D9B1D18
:1017D0008090000190900101A0900201B09003015F
:1017E00086169706A806B90601F5F80187898031A3
:1017F00011F5DD24EE24FF24F601EE0FFF1FEF5557
:10180000FC4F80819181B0E0A0E088839983AA8316
:10181000BB8381E0BBCFDB01CA01C7E0B695A795CA
:1018200097958795CA95D1F7C9CF40E00E9497094F
:101830008111DBCFAACFE894C7F8DD24EE24FF2482
:10184000F601EE0FFF1FEE0FFF1FEF55FC4F8081DB
:101850009181A281B381BF70D8CF4F925F926F9276
:101860007F92AF92BF92CF92DF92EF92FF920F934F
:101870001F93CF93DF9300D000D0CDB7DEB78C019C
:1018800049835A836B837C835901C12CD12C760107
:10189000412C82E0582E612C712C49815A816B8138
:1018A0007C819E012F5F3F4FC8010E94AC0B8823B3
:1018B00039F1F8018585A301920104C0220F331F7D
:1018C000441F551F8A95D2F7DA01C901C80ED91EE7
:1018D000EA1EFB1E49815A816B817C818789803198
:1018E00011F188EF9FEFAFEFBFE0481759076A0784
:1018F0007B0798F2F501C082D182E282F38281E017
:101900000F900F900F900F90DF91CF911F910F913B
:10191000FF90EF90DF90CF90BF90AF907F906F904F
:101920005F904F90089588EF9FEFA0E0B0E0DDCF8B
:10193000CF93DF93FC012581222321F080E0DF910A
:10194000CF910895EC0180917106803159F582E0C4
:101950008583178A108E118E128E80917206909157
:101960007306B0E0A0E025E0880F991FAA1FBB1FF7
:101970002A95D1F7838B948BA58BB68B8AE596E05D
:101980009C8F8B8F81E08C831E821F821886198624
:101990001A861B861C861D861E861F86188A198A33
:1019A0001A8ACDCF803251F683E085834091740648
:1019B000509175066091760670917706478B508F2F
:1019C000618F728F9F012D5E3F4F8AE596E00E94E6
:1019D0002D0C8111D3CFB2CF8F929F92AF92BF9235
:1019E000CF92DF92EF92FF920F931F93CF93DF93EB
:1019F000EC018D8181110EC080E0DF91CF911F91AC
:101A00000F91FF90EF90DF90CF90BF90AF909F909D
:101A10008F9008950B891C892D893E89041715071D
:101A20002607370748F34A015B01823031F48A8682
:101A30009B86AC86BD8681E0E0CF81149104A10431
:101A4000B10449F41E821F82188619861A861B86E5
:101A50001C861D86F0CF0A851B852C853D85EB8D68
:101A6000FC8D858590E00996B901A8014150510986
:101A700061097109082E04C07695679557954795B9
:101A80000A94D2F775016401E1E0CE1AD108E108A9
:101A9000F10804C0F694E794D794C7948A95D2F7D6
:101AA000C416D506E606F70620F0012B022B032B01
:101AB00011F58F89988DA98DBA8D8E839F83A88704
:101AC000B9878E010A5F1F4FC114D104E104F104EC
:101AD00009F4ADCF4E815F816885798598018B8D42
:101AE0009C8D0E94AC0B91E0C91AD108E108F10865
:101AF0008111EACF81CFC41AD50AE60AF70AE1CFED
:101B00003F924F925F926F927F928F929F92AF928D
:101B1000BF92CF92DF92EF92FF920F931F93CF93DA
:101B2000DF93CDB7DEB72C970FB6F894DEBF0FBEAC
:101B3000CDBF5C01DC015B968D909C905C97169606
:101B40004D905D906D907C90199741145104610403
:101B5000710409F468C0BFEF4B1A5B0A6B0A7B0A79
:101B6000312CF40181859285A385B4859C01AD015A
:101B70002F5F3F4F4F4F5F4F29873A874B875C87D7
:101B8000730162011D821E821F821886F401818505
:101B90009285A385B4852D813E814F815885281774
:101BA00039074A075B0708F056C089859A85AB85D7
:101BB000BC858C159D05AE05BF0550F482E0C82E8E
:101BC000D12CE12CF12C92E0492E512C612C712C5E
:101BD0009E012F5F3F4FB701A601C4010E94AC0BCD
:101BE0008823C9F189819A81AB81BC81892B8A2B99
:101BF0008B2B09F1260137019FEF491A590A690A0F
:101C0000790A2D813E814F8158852F5F3F4F4F4F7D
:101C10005F4F2D833E834F8358873FEFC31AD30A0C
:101C2000E30AF30AB3CFF4014080518062807380ED
:101C30003324339496CFC414D504E604F70409F78B
:101C40000FEF1FEF2FEF3FE0B701A601C4010E9485
:101C50000A0B811119C080E02C960FB6F894DEBFF4
:101C60000FBECDBFDF91CF911F910F91FF90EF90ED
:101C7000DF90CF90BF90AF909F908F907F906F90AC
:101C80005F904F903F900895D50116964D915D91CC
:101C90006D917C911997411551056105710539F0D8
:101CA00097018601C4010E940A0B8823A1F2D50185
:101CB0001696CD92DD92ED92FC921997332051F059
:101CC000D701C6010196A11DB11DF4018083918346
:101CD000A283B383F5018789908DA18DB28D892B65
:101CE0008A2B8B2B39F48481C78AD08EE18EF28EB9
:101CF00080688483F50184818062848381E0ACCF35
:101D00001F93CF93DF93FC0125812223D1F1162F5E
:101D1000EC01848187FF2AC0668577858089918957
:101D200041E00E949709882361F1EA8980E2E89FF7
:101D3000F0011124EF55FC4F309719F18D8182305D
:101D400040F48B899C89AD89BE89848F958FA68F3D
:101D5000B78F8F89988D938F828F8F89988DA98D5A
:101D6000BA8DB58BA48B8C818F778C83111103C0B6
:101D70008C818F7E8C83812FDF91CF911F910C946A
:101D80006C0980E0DF91CF911F910895FF920F932E
:101D90001F93CF93DF93EC018D81813041F090E070
:101DA00080E0DF91CF911F910F91FF9008958C817A
:101DB00081FFF5CF82FD1BC00091A1051091A20506
:101DC000C8010E94C5070E94A407F82EC8010E94FE
:101DD00092078FEFF812E3CF8C8185FF1BC060E084
:101DE000CE010E94800E8C818F7D8C83D8CF4B8951
:101DF0005C896D897E898A859B85AC85BD858417C4
:101E00009507A607B707C1F2CE010E94EC0C81111D
:101E1000D3CFC5CF4091BF015091C0016091C101A6
:101E20007091C201452B462B472B21F080E00E9488
:101E30004809B5CF80618C832A853B85317080E06D
:101E400092E0821B930BADCFCF93DF93EC0161E067
:101E50000E94800E882311F01D8281E0DF91CF91D6
:101E600008952F923F924F925F926F927F928F923E
:101E70009F92AF92BF92CF92DF92EF92FF920F9319
:101E80001F93CF93DF9300D000D01F92CDB7DEB762
:101E90007C015B01342E5D83DC0115968C911597D6
:101EA000813009F0CEC014962C9021FECAC022FCCD
:101EB000B4C0C32CDD8022947FE027222094B22D71
:101EC000B1702B2ED7011A964D915D916D917C9139
:101ED0001D97C114D10409F428C15B968D919C9182
:101EE0005C97FC0174807A948A019B0169E03695C5
:101EF0002795179507956A95D1F770228A01117079
:101F0000711020C001151105E9F416964D915D91EF
:101F10006D917C911997411551056105710509F085
:101F200099C057968D919D910D90BC91A02D0097D1
:101F3000A105B10509F0B0C0C7010E94800D88233A
:101F400009F47FC080E092E0801B910B46018C1564
:101F50009D0508F44C01D7015B964D915C915C970F
:101F600016968D919D910D90BC91A02D0297A1097F
:101F7000B109FA01258504C0880F991FAA1FBB1F4C
:101F80002A95D2F74685578560897189840F951FF8
:101F9000A61FB71F9C01AD01270D311D411D511D0D
:101FA00029013A01811432E0930609F07BC0809147
:101FB000000190910101A0910201B09103018415EB
:101FC0009505A605B70559F48FEF9FEFDC018093C7
:101FD000000190930101A0930201B0930301022D2F
:101FE0009501B301A2018091A1059091A2050E94E3
:101FF000DA08882331F19EEFB91AC818D908F70119
:1020000082859385A485B585880D991DA11DB11D77
:1020100082879387A487B58755CFF7014389548971
:102020006589768982859385A485B5854817590782
:102030006A077B0709F43DCFC7010E94EC0C8111B0
:1020400038CF81E090E0D70113969C938E9312973E
:1020500080E007C09E012F5F3F4F0E94AC0B8111B3
:1020600002C090E079C089819A81AB81BC81F7017F
:10207000238D348DF901278948EF5FEF60E070E030
:10208000203121F048EF5FEF6FEF7FE08417950775
:10209000A607B70708F050CFF70186839783A0877C
:1020A000B18750CF0115110599F5D7011A964D91B9
:1020B0005D916D917C911D9753968D919D910D90A1
:1020C000BC91A02D481759076A077B0708F181E0EA
:1020D0000E946C09882309F4B4CF40920001509209
:1020E000010160920201709203018091BE01816042
:1020F0008093BE01C8018F559C4FD5019C01280DCE
:10210000391DFC012E173F0759F04D914193FACF2D
:1021100041E0C301B2010E9497098111EBCF91CF39
:10212000281B390BA20EB31E68CFF701838994894F
:10213000A589B68984179507A607B70738F484815F
:10214000438B548B658B768B80688483F701848105
:1021500083FD1AC0832D9D810F900F900F900F90DB
:102160000F90DF91CF911F910F91FF90EF90DF9033
:10217000CF90BF90AF909F908F907F906F905F9027
:102180004F903F902F90089561E0C7010E94800E0C
:10219000882309F456CFDECFCF93DF931F92CDB7BC
:1021A000DEB7698341E050E0BE016F5F7F4F0E9460
:1021B000310F0F90DF91CF910895FC01DB01129652
:1021C0008D919C9113979383828383E691E0918311
:1021D000808314968C911497848315968C9115970F
:1021E000858316964D915D916D917C9119974683EB
:1021F0005783608771871A964D915D916D917C919F
:102200001D9742875387648775871E964D915D9110
:102210006D917C91519746875787608B718B529651
:102220008C915297828B53964D915D916D917C91DB
:102230005697438B548B658B768B57964D915D915A
:102240006D917C915A97478B508F618F728F5B96FF
:102250008D919C91948F838F08950895FC01818DB9
:10226000928D009719F061E00C94800E0895DC01C6
:102270005996ED91FC913097B9F083899489A5899D
:10228000B6894285538564857585841B950BA60B9D
:10229000B70B811520E89207A105B10538F08FEF43
:1022A0009FE7A0E0B0E0089590E080E00895DC01B1
:1022B00059968D919C91009739F0DC01ED91FC913C
:1022C0000480F581E02D099490E080E00895CF939B
:1022D000DF93EC01E98DFA8D309749F481E090E0CD
:1022E0009B838A8390E080E0DF91CF9108951382F1
:1022F0001282898D9A8D0E94310FE98DFA8D22818B
:102300003381232B59F7F0CFCF93DF931F92CDB7B3
:10231000DEB76983DC01ED91FC910280F381E02D51
:1023200041E050E0BE016F5F7F4F09950F90DF9154
:10233000CF9108952F923F924F925F926F927F922A
:102340008F929F92AF92BF92CF92DF92EF92FF92C5
:102350000F931F93CF93DF9300D01F92CDB7DEB7BB
:10236000FC018581811118C08FEF9FEF0F900F90B6
:102370000F90DF91CF911F910F91FF90EF90DF9021
:10238000CF90BF90AF909F908F907F906F905F9015
:102390004F903F902F900895848180FFE5CF43892F
:1023A00054896589768982859385A485B585312C84
:1023B000212C481759076A077B0719F02224239418
:1023C000312C6F012101CE0101963C01DF011696EF
:1023D000BB83AA834114510409F4C5C0F6014285A8
:1023E0005385648575854A01F1E09F22D6015B968D
:1023F0008D919C915C978A019B01E9E03695279528
:1024000017950795EA95D1F71596EC91E230E9F525
:10241000FC01628D738D848D958D600F711F821FFD
:10242000931FA12C22E0B22EA818B9084A145B040D
:1024300008F45201F601248126FD04C0A114F2E043
:10244000BF0671F400910001109101012091020179
:1024500030910301061717072807390709F05EC0F6
:1024600040E00E949709882309F47ECFC4018F556C
:102470009C4FD3019C012A0D3B1DFC012E173F07E9
:1024800009F46CC041914D93F9CFDC011496BC90D6
:10249000BA94B0228114910479F4B1100DC0452B87
:1024A000462B472B69F5F6018789908DA18DB28D5A
:1024B00086839783A087B187D6015B96ED91FC91C7
:1024C0005C9716966D917D918D919C9119976250B4
:1024D000710981099109258504C0660F771F881F3E
:1024E000991F2A95D2F70685178520893189600FB3
:1024F000711F821F931F6B0D711D811D911D91CF47
:10250000D60116964D915D916D917C9119972A8116
:102510003B810E94AC0B8111CFCF26CF7301850187
:102520009401AB01BC018091A1059091A2050E948C
:102530003808882309F418CF6A0C7B1CF6018285C1
:102540009385A485B5858A0D9B1DA11DB11D82872C
:102550009387A487B5874A185B083CCF281B390BA3
:10256000620E731EEBCF2A94232809F0FDCE8981D9
:1025700090E0FCCEFC01818D928D009711F00C94BF
:102580009A118FEF9FEF08950F931F93CF93DF93CF
:10259000EC01898D9A8D10E000E0009799F00E947F
:1025A0009A118C010F3F100769F0898D9A8DFC01FB
:1025B00042855385648575854150510961097109CA
:1025C0000E94EC0CC801DF91CF911F910F910895EB
:1025D000CF93DF93EC018A859B85AC85BD858E8387
:1025E0009F83A887B9870E94C3026A837B838C83F9
:1025F0009D8381E089838883DF91CF910895CF9374
:10260000DF93EC018E819F81A885B9858A839B83A6
:10261000AC83BD830E94C3026A877B878C879D87BA
:1026200081E089838883DF91CF910895CF92DF92F3
:10263000EF92FF921F93CF93DF93EC0180E2689FAC
:10264000F0011124EF55FC4F9385917161F0842FB7
:10265000827449F080E0DF91CF911F91FF90EF905D
:10266000DF90CF900895142F6A8B80910001909194
:102670000101A0910201B09103018E879F87A88B71
:10268000B98BC488D588F12CE12C7601DD24CC24CB
:10269000CF8AD88EE98EFA8E828D938DB0E0A0E03D
:1026A000AC01BD014C295D296E297F294F8B588FC4
:1026B000698F7A8F83858871B1F4848D958DA68D0D
:1026C000B78D8B8B9C8BAD8BBE8B81E08D831F7008
:1026D0001C831E821F82188619861A861B861C86FA
:1026E0001D8681E0B8CF803109F0B4CF9E012D5E08
:1026F0003F4F8B8D9C8D0E942D0C882309F4AACF0F
:1027000084E0E4CF2F923F924F925F926F927F923C
:102710008F929F92AF92BF92CF92DF92EF92FF92F1
:102720000F931F93CF93DF93D82FC92F8B010E9454
:10273000592F24E630E040E050E00E94C72F4901C5
:102740009B01AC0160E876E988E990E00E94F82FEF
:102750006B017C01F80191828082ED2FFC2F219189
:10276000822F022E000C990BC0970A97C0F32E32CD
:1027700039F51F0180E8882E86E9982E88E9A82E71
:10278000B12C9AE0492E512C612C712CF101C19190
:102790001F010C2E000CDD0BE097CA30D10580F430
:1027A000C501B401A30192010E94C72F49015A013A
:1027B000DE010E94BF2FC60ED71EE81EF91EE6CF0F
:1027C000A5E0B0E0A70196010E94B42F6F5F7F4F94
:1027D0008F4F9F4F23E030E040E050E00E94C72F32
:1027E000F80122833383448355831682DF91CF918E
:1027F0001F910F91FF90EF90DF90CF90BF90AF901F
:102800009F908F907F906F905F904F903F902F9010
:1028100008951F93CF93DF93EC0118811D3209F4C3
:102820002196CE010E94592F9B01AC01A4E6B0E095
:102830000E94B42FAB01BC01FE012991822F022E10
:10284000000C990BC0970A97B8F32E3231F58181AD
:10285000082E000C990BC0978A309105F0F4AAE07D
:10286000A89F9001A99F300D1124C901330FAA0B15
:10287000BB0B480F591F6A1F7B1F8281082E000C5B
:10288000990BC0978A30910540F4092E000CAA0BD1
:10289000BB0B480F591F6A1F7B1F1D3239F47095FF
:1028A0006095509541955F4F6F4F7F4FCB01BA01B7
:1028B000DF91CF911F910895FB0101900020E9F76E
:1028C0003197AF01461B570BDC01ED91FC91028063
:1028D000F381E02D09948F929F92AF92BF92EF9275
:1028E000FF920F931F93CF93DF93CDB7DEB7A197DE
:1028F0000FB6F894DEBF0FBECDBF7C01FA01CB014D
:1029000019A2223008F42AE08E010F5D1F4F822E9B
:10291000912CB12CA12CBF01A50194010E94C72FBD
:10292000F901CA016A300CF5605DD8016E938D0122
:10293000232B242B252B79F790E080E0109721F0B2
:10294000BD01C7010E945C14A1960FB6F894DEBFCA
:102950000FBECDBFDF91CF911F910F91FF90EF90F0
:10296000BF90AF909F908F900895695CDECF462F07
:1029700050E070E060E02AE00C946B14CF92DF929C
:10298000EF92FF920F931F93CF93DF936B01770F1B
:10299000EE08FF08F7FE1BC0EC016DE20E94100379
:1029A0008C0144275527BA014C195D096E097F092E
:1029B0002AE0CE010E946B14800F911FDF91CF910E
:1029C0001F910F91FF90EF90DF90CF9008952AE034
:1029D000B701A601DF91CF911F910F91FF90EF906A
:1029E000DF90CF900C946B142F923F924F925F9296
:1029F0006F927F928F929F92AF92BF92CF92DF920F
:102A0000EF92FF921F93CF93DF93EC016A017B015A
:102A1000722EAB019601CB01B6010E947C326FE8A9
:102A200071E0811126C046015701E894B7F82FEFF5
:102A30003FEF4FE75FE7C501B4010E947C3281118F
:102A40000CC02FEF3FEF4FE75FE7C501B4010E94D5
:102A5000A33063E971E0181664F02FEF3FEF4FE702
:102A60005FE4C701B6010E9402321816B4F467E9A8
:102A700071E0CE01DF91CF911F91FF90EF90DF9039
:102A8000CF90BF90AF909F908F907F906F905F900E
:102A90004F903F902F900C945C142FEF3FEF4FE737
:102AA0005FECC701B6010E94A33087FDE0CF20E0B4
:102AB00030E0A901C701B6010E94A330312C212CBE
:102AC00087FF09C06DE2CE010E9410031C01F7FAD6
:102AD000F094F7F8F09410E060E070E080E09FE39D
:102AE000711641F020E030E040E251E40E94A8304D
:102AF0001F5FF6CFA70196010E9437302B013C01E2
:102B00000E9421314B015C012AE0BC01A401CE01ED
:102B10000E946B147C01E20CF31C1123C1F1C5016E
:102B2000B4010E9450319B01AC01C301B2010E946B
:102B300036304B015C016EE2CE010E941003E80EBC
:102B4000F91E115020F120E030E040E251E4C501CF
:102B5000B4010E9407322B013C010E9421314B013C
:102B6000B12CA12C2AE0B501A401CE010E946B1466
:102B7000E80EF91EC501B4010E9450319B01AC0161
:102B8000C301B2010E9436304B015C01DACFC701AC
:102B9000DF91CF911F91FF90EF90DF90CF90BF908A
:102BA000AF909F908F907F906F905F904F903F90ED
:102BB0002F9008950C94F4140F931F93CF93DF93E9
:102BC000EC010E9417038C016BE971E0CE010E94B9
:102BD0005C14800F911FDF91CF911F910F91089589
:102BE00085ED8093BC0080917B0390917C03A09144
:102BF0007D03B0917E030796A11DB11D23E0B6951C
:102C0000A795979587952A95D1F72091BC0024FD2B
:102C100003C010927903089540917B0350917C0387
:102C200060917D0370917E03452B462B472B69F302
:102C30000097A105B10541F02AE22A95F1F700C0FD
:102C40000197A109B109E1CF80917A030C948D0419
:102C50003F924F925F926F927F928F929F92AF922C
:102C6000BF92CF92DF92EF92FF920F931F93CF9379
:102C7000DF93CDB7DEB72B970FB6F894DEBF0FBE4C
:102C8000CDBF7C01FE013196CE010C966F0130E282
:102C90003193E817F907E1F7DA0130E087E09D9119
:102CA000B92E992309F43CC09E32F1F48A30C9F45C
:102CB00080E02B960FB6F894DEBF0FBECDBFDF913C
:102CC000CF911F910F91FF90EF90DF90CF90BF9029
:102CD000AF909F908F907F906F905F904F903F90BC
:102CE000089538E08AE0DBCFE6E8F0E04491442341
:102CF00021F031969413FACFDBCF8317C8F24FED52
:102D0000490F4E35A8F64FE9490F4A3118F440EE05
:102D1000B42EB90EF601E30FF11DB0823F5FBFCFB5
:102D20008981803229F2322E8B01DB015B968D91F5
:102D30009C915C97F701948F838F16961D921D923C
:102D40001D921C921997FB01128613861486158614
:102D5000F80182859385A485B58543895489658961
:102D6000768984179507A607B70708F04DC025E0B8
:102D7000B695A795979587952A95D1F7F82FFF7067
:102D8000AF2ED80115968C91823008F491CFC801EE
:102D90000E949A1197FD8CCFF80182859385A485B6
:102DA000B5854F96A11DB11D82879387A487B587EE
:102DB000F0E2AF9EB00111246F557C4F6115710593
:102DC00009F476CFDB018C91882341F0853E09F030
:102DD00062C0BB2029F0BB24B394BACFB1100EC09F
:102DE000F701A28A8091000190910101A091020156
:102DF000B091030186879787A08BB18BDB018C9103
:102E00008111E9CFBB24B394832D8271823109F003
:102E10004FCFBB2009F44DC0F701668577858089C7
:102E2000918941E00E949709882309F441CFD70195
:102E300052968C91B0E28B9FC00111248F559C4F0C
:102E4000009709F435CFFC013A9626E1DF011D9287
:102E50002A95E9F72BE0F601DC0101900D922A9505
:102E6000E1F721E238E2FC01318B208B40E058E0B1
:102E700057874687338B228B318F208F578B468B1A
:102E800081E00E946C09882309F412CF432DD701F9
:102E900052966C910AC04BE050E0C6010E942E345D
:102EA000892B09F055CF432D6A2DC7010E941613B7
:102EB00000CFF8018581823009F4FACEC8010E9462
:102EC000800D882309F4F4CED8015B96ED91FC9136
:102ED0005C9716968D909D90AD90BC901997B2E03E
:102EE0008B1A9108A108B108858504C0880C991C2B
:102EF000AA1CBB1C8A95D2F786859785A089B189C3
:102F0000880E991EAA1EBB1E848124013501480E1D
:102F1000511C611C711C84149504A604B70409F1AA
:102F2000E1E04E1A51086108710881E00E946C09C5
:102F3000882309F4BDCEE1EAF3E0119281EA95E03D
:102F40008E179F07D1F740920001509201016092C5
:102F50000201709203018091BE0181608093BE01E5
:102F6000DACFD8015B96ED91FC91258580E092E067
:102F7000A0E0B0E004C0880F991FAA1FBB1F2A95CC
:102F8000D2F7F8014389548965897689840F951FA2
:102F9000A61FB71F838B948BA58BB68BD701529638
:102FA0001C9281EA93E04FCFEF92FF920F931F9311
:102FB000CF93DF93EC017B018A011B821A8288EE9A
:102FC00093E0A0E0B0E08C839D83AE83BF838FE667
:102FD00091E0998388838DE190E00E9409339A8F74
:102FE000898F009779F02DE1F701DC0101900D92B6
:102FF0002A95E1F74CE050E0B801CE010C960E9412
:103000005634188EDF91CF911F910F91FF90EF9062
:1030100008951F920F920FB60F9211242F933F9392
:103020008F939F93AF93BF93809127039091280331
:10303000A0912903B0912A033091260323E0230FA6
:103040002D3758F50196A11DB11D209326038093BD
:10305000270390932803A0932903B0932A03809118
:103060002B0390912C03A0912D03B0912E03019678
:10307000A11DB11D80932B0390932C03A0932D03CE
:10308000B0932E03BF91AF919F918F913F912F915C
:103090000F900FBE0F901F90189526E8230F0296F1
:1030A000A11DB11DD2CF1F920F920FB60F92112406
:1030B0002F933F934F935F936F937F938F939F9340
:1030C000AF93BF93EF93FF93E0910601F091070157
:1030D0000995FF91EF91BF91AF919F918F917F9152
:1030E0006F915F914F913F912F910F900FBE0F9075
:1030F0001F9018951F920F920FB60F9211242F93C5
:103100003F934F935F936F937F938F939F93AF936F
:10311000BF93EF93FF93E0910401F09105010995AE
:10312000FF91EF91BF91AF919F918F917F916F919F
:103130005F914F913F912F910F900FBE0F901F9075
:1031400018951F920F920FB60F9211242F933F9351
:103150004F935F936F937F938F939F93AF93BF939F
:10316000EF93FF9383EA95E00E94B903FF91EF91FB
:10317000BF91AF919F918F917F916F915F914F918F
:103180003F912F910F900FBE0F901F9018951F9297
:103190000F920FB60F9211242F938F939F93EF935B
:1031A000FF93E091B305F091B4058081E091B905FA
:1031B000F091BA0582FD1BC090818091BC058F5FA4
:1031C0008F732091BD05821741F0E091BC05F0E0BE
:1031D000ED55FA4F958F8093BC05FF91EF919F912C
:1031E0008F912F910F900FBE0F901F901895808197
:1031F000F4CF1F920F920FB60F9211242F933F938B
:103200004F935F936F937F938F939F93AF93BF93EE
:10321000EF93FF938091B900887F803609F44AC00C
:10322000F0F5883209F4A7C018F5803109F49BC085
:10323000B8F4882309F4F9C0883009F494C0FF91E8
:10324000EF91BF91AF919F918F917F916F915F911E
:103250004F913F912F910F900FBE0F901F90189597
:10326000883109F488C0803251F78093770314C005
:10327000803409F49DC040F48033B9F38833F9F603
:103280008093770385ECB0C0803509F485C088351C
:1032900009F496C0883499F60E94F015D0CF883989
:1032A00009F48CC038F5883729F050F4883611F0CD
:1032B000803729F683E0809379031092460257C045
:1032C000883809F47BC0803919F0803809F0B7CF0D
:1032D00080914602803208F071C0E091460281E0A0
:1032E0008E0F809346028091BB00F0E0EA5DFD4FB7
:1032F00080833DC0803B39F0E0F4803A09F479C026
:10330000883A09F09CCF84E08093790310922502DB
:1033100010922402E0915E02F0915F020995809183
:10332000240281110FC081E08093240210920402D4
:1033300009C0803C09F4A6CF883C09F4A3CF883BA0
:1033400009F07DCFE091250281E08E0F8093250268
:10335000F0E0EC5FFD4F80818093BB0090912502EF
:103360008091240229C0809174038093BB0085EC76
:103370008093BC0064CF9091760380917503981779
:1033800058F5E091760381E08E0F80937603F0E0AC
:10339000ED5AFC4F8081E9CFE091760381E08E0FFA
:1033A000809376038091BB00F0E0ED5AFC4F808360
:1033B00090917603809175039817C8F285E8D8CF6D
:1033C000E091760381E08E0F809376038091BB00BD
:1033D000F0E0ED5AFC4F80838091780381115CCF3F
:1033E00081E08093730384EA8093BC001092790398
:1033F00026CF85EC8093BC00109279038091460221
:10340000803230F4E0914602F0E0EA5DFD4F108238
:103410006091460270E0E0915C02F0915D0286E20C
:1034200092E00995109246020ACF1092770334CFAA
:103430001F920F920FB60F9211242F933F934F9329
:103440005F936F937F938F939F93AF93BF93EF930C
:10345000FF93E0914902F0914A02309749F0A68526
:10346000B7858585968D91FF14C09C918923A1F421
:10347000FF91EF91BF91AF919F918F917F916F914C
:103480005F914F913F912F910F900FBE0F901F9022
:1034900018959C91892361F7A389B4899C918589AA
:1034A000809589238C93868997890197F1F7608DA0
:1034B000718DA685B785558538E020E0CB01019751
:1034C000F1F7822F90E095958795282F4C91452311
:1034D00009F02068315091F7868D81FD209580910B
:1034E000480290E001968F73992730914702381770
:1034F00099F0A0914802B0E0AD53BE4F2C93809359
:103500004802828D938D0197F1F7A389B4898C913C
:103510009589892B8C93ACCF868D8160868FF1CF76
:103520001092A6051092A50588EE93E0A0E0B0E009
:103530008093A7059093A805A093A905B093AA0529
:103540002FE331E03093A4052093A30525EC30E070
:103550003093B0052093AF0524EC30E03093B205F2
:103560002093B10520EC30E03093B4052093B305EF
:1035700021EC30E03093B6052093B50522EC30E025
:103580003093B8052093B70526EC30E03093BA05A8
:103590002093B9051092BC051092BD051092BE058E
:1035A0001092BF0510924306109242068093440683
:1035B00090934506A0934606B093470621E531E077
:1035C000309341062093400620E520934C0610924C
:1035D0004D06109253061092540610925706109200
:1035E000590642E050E060E070E040935A06509384
:1035F0005B0660935C0670935D06109271061092F4
:103600007B0610927A0623E631E030937906209308
:10361000780610927D061092D1061092D206109272
:10362000D4061092D3061092D5061092D6061092A8
:10363000D7061092D8061092D9061092DB06109287
:10364000DA061092DC061092DD061092DE06109269
:10365000DF061092E0061092E2061092E106109248
:10366000E3061092E4061092E5061092E606109228
:10367000E7061092E9061092E8061092EA06109208
:10368000EB061092EC061092ED061092EE0620E387
:1036900030E03093F0062093EF062EE430E03093D4
:1036A000F4062093F3061092FB061092FC0610928B
:1036B000FD061092FE061092FF061092000710926F
:1036C000090710920A0710920B0710920C0710922C
:1036D0000D0710920E0710921707109218071092FC
:1036E0001D0710921E0710921F07109220071092BC
:1036F00025071092260710922B0710922C07109284
:103700002D0710922E071092330710923407109253
:10371000390710923A0710923B0710923C0710921B
:1037200041071092420710924707109248071092E3
:10373000490710924A0710924F07109250071092B3
:10374000550710925607109257071092580710927B
:103750005D0710925E0722E020936E0710926F07BC
:1037600010927007109271071092730710927207EF
:1037700010927507109274071092760710927707CF
:10378000109278071092790710927A0710927B07AF
:1037900010927C0710927D0710927E0710927F078F
:1037A000109280071092810710928207109283076F
:1037B000109284071092850710925F071092B50649
:1037C0001092B4068093B6069093B706A093B806FD
:1037D000B093B90681E891E09093B3068093B20666
:1037E0001092C9061092C8061092CB061092CA0613
:1037F0001092CD061092CC061092CF061092CE06F3
:103800006091D0066E7F6D7F6093D0066695617083
:1038100081E068278FEF0E94FF0161E08FEF0E9437
:103820002D02EDE8F3E0E491E093C206E9E7F3E06E
:10383000E491F0E0EE0FFF1FE059FD4F8591949168
:103840009093C4068093C30660E084E00E942D023A
:103850008091D00681FD04C061E084E00E94FF01F8
:1038600084E08093BE06E2E9F2E0E491E093BF06D3
:10387000EEE7F2E0E491F0E0EE0FFF1FEA59FD4FB2
:10388000859194919093C1068093C00610929A06F8
:103890001092990688EE93E0A0E0B0E080939B063A
:1038A00090939C06A0939D06B0939E068FE691E0B0
:1038B00090939806809397061092B1061092B006E6
:1038C0001092A3060895CF93DF93CDB7DEB7CE57FE
:1038D000D1090FB6F894DEBF0FBECDBF789484B582
:1038E000826084BD84B5816084BD85B5826085BDFC
:1038F00085B5816085BD80916E00816080936E008A
:10390000109281008091810082608093810080917B
:10391000810081608093810080918000816080932C
:1039200080008091B10084608093B1008091B000EC
:1039300081608093B00080917A00846080937A00E7
:1039400080917A00826080937A0080917A00816011
:1039500080937A0080917A00806880937A00109238
:10396000C10061E089E00E942D0261E089E00E94CF
:10397000FF0162E086E00E942D0262E085E00E9485
:103980002D020E948E0286E00E94D60121E0892B42
:1039900009F020E020932503E091B305F091B405F0
:1039A00082E08083E091AF05F091B0051082E09154
:1039B000B105F091B20580E180831092BB05E091E2
:1039C000B705F091B80586E08083E091B505F091E8
:1039D000B605808180618083E091B505F091B605E0
:1039E000808188608083E091B505F091B605808183
:1039F00080688083E091B505F091B60580818F7D68
:103A000080836BE272E083EA95E00E94DC1562E25B
:103A100072E083EA95E00E9417038091250367E135
:103A200072E0811102C06AE072E083EA95E00E94D0
:103A3000DC15EAEDF2E083E4DF011D928A95E9F7F7
:103A400080912503811193C01092CD061092CC066F
:103A50001092CB061092CA061092C9061092C806A0
:103A60008DE991E09093CF068093CE069091BE06AB
:103A7000963108F047C02DEB30E03093C906209313
:103A8000C8062BE931E03093CB062093CA062CE21E
:103A900031E03093CD062093CC062091680084E07D
:103AA000983048F031E09E3008F430E081E001C009
:103AB000880F3A95EAF7822B809368002DE630E074
:103AC000983050F02BE630E09E3030F02CE630E0BD
:103AD000963110F030E020E03093C6062093C50602
:103AE000292F30E0983008F0CFC081E001C0880F66
:103AF0009A95EAF78093C7068091CE069091CF06FB
:103B00000197F1F78091CC069091CD06892B49F170
:103B1000E0914902F0914A02B6E0E23BFB0709F16D
:103B2000309739F0A389B4899C9185898095892340
:103B30008C938091D0068E7F8093D006109248029D
:103B40001092470282EB96E090934A0280934902DA
:103B5000E091C506F091C60680819091C706892B39
:103B600080836DEE71E083EA95E00E94DC15809120
:103B70007D06882321F088E796E00E94240F1092AA
:103B800059061092570610925406109253068AE076
:103B9000809352060E94C3028B0161E0809152061D
:103BA0000E942D0261E0809152060E94FF01FFB643
:103BB000F89480914B02811127C0E4E8F2E08491EF
:103BC000E8E9F2E09491E82FF0E0EE0FFF1FE85BE8
:103BD000FD4FA591B491EC91E92321F461E08AE0D5
:103BE0000E94FF0161E08AE00E942D028CB5806195
:103BF0008CBD8CB580648CBD61E08DE00E942D028F
:103C000061E08BE00E942D0280914B028F5F8093D8
:103C10004B02FFBE82E580934C0610924D068091C8
:103C20004C0690914D060E94C2076AE0F62E8FEF77
:103C30000E949D07FA94F110FACF8EE496E00E945C
:103C4000C50720E030E0A90160E08EE496E00E9424
:103C5000DB07F82E80935806E1E08E1711F10E94E1
:103C6000C302601B710B613D774058F381E0809384
:103C700053068EE496E00E94920767E171E083EAC2
:103C800095E00E94DC1530C29E3040F42850310986
:103C900081E001C0880F2A95EAF72CCF2E50310918
:103CA000F7CF2AEA31E040E050E068E08EE496E0A9
:103CB0000E94DB0782FF2AC0F092590680915906C4
:103CC000C12CD12CE12C40E4F42E823019F0C12C0F
:103CD000D12C760120E030E0A90167E38EE496E084
:103CE0000E94DB07A701960169E28EE496E00E943C
:103CF000DB07809358068823D1F00E94C302601B23
:103D0000710B613D774030F388E0B1CF54E0F52E80
:103D10000E94A40780935806FA94F110F9CF8A3ACA
:103D200011F082E0A4CF82E080935906C7CF809142
:103D300059068230D1F420E030E0A9016AE38EE434
:103D400096E00E94DB07882311F086E090CF0E9466
:103D5000A407807C803C19F483E0809359060E947C
:103D6000A4070E94A4070E94A4078EE496E00E9484
:103D7000920780E580934C0610924D0681E00E94E8
:103D8000E109882309F492C088E796E00E94980C24
:103D9000882309F472CF81E090E00EE9602E01E003
:103DA000702E20E1222E33E6A32E31E0B32E4C01FB
:103DB0003FEF831A930A9F938F937F926F921F9284
:103DC0002F924CE452E05F934F930E9465341EAEF5
:103DD0001DAEBCAEABAE21961FAE219719A218A2A4
:103DE000BF8EAE8E1BA20FB6F894DEBF0FBECDBF46
:103DF000412C312CFE01FB966F0118E7E12E16E0F5
:103E0000F12E842D932DFC01E45BFD4F20812F3298
:103E100009F40196DC01A45BBD4FFE01E85AFF4F97
:103E200030E020E08F014D914F3249F0442339F0CA
:103E300001962F5F3F4F41932C303105A1F7200FA2
:103E4000311FD9011C92FC01E45BFD4F20812F3210
:103E500009F40196482E392E845B9D4FFC01508059
:103E60001C821B82BA82A9821E8221E0A801B701AE
:103E7000CE0101960E942816882311F40C946E2E10
:103E8000CE0101960E94240F511017C0E8E7EE16EC
:103E9000E6E0FE0619F0C7010E94240FC401F7EE08
:103EA0008F16F3E09F0609F082CF21C080E00E94C8
:103EB000E109882309F4E1CE67CFD60115968C91EC
:103EC00081110C94912E21E0A801B701C6010E9436
:103ED0002816582EB8E7EB16B6E0FB0611F40C9442
:103EE0007A2EC7010E94240F51100C94822E19A221
:103EF00018A283E691E09F8F8E8F1BA21C821B82EB
:103F00009A8389831E824E012EE1820E911CC40188
:103F10000E94980CAE014F5F5F4F6A013401BCE410
:103F2000EB2EB2E0FB2E6FE270E0C7010E943B3443
:103F3000009709F459C0D7012C912F3271F4BFEFCB
:103F4000EB1AFB0A9C2D8D2D6301692E782E962D80
:103F5000872D3601C92ED82EE6CF8E198D3008F068
:103F60008CE0A82EB12CA501B701C8010E945634DF
:103F7000F801EA0DFB1D1082C6010E94240FF60114
:103F80008581882319F11EAE1DAE83E691E09CAFBA
:103F90008BAF21961FAE2197F12CE12CA701445B3A
:103FA0005D4F7A01DA018C91811128C0BE01655CF8
:103FB0007F4FCE0101960E94DD104BEA51E0BE0119
:103FC0006F5F7F4FC8010E94D41736C021E0A8015F
:103FD000B301C6010E9428168823A9F2EA0CFB1C33
:103FE000C3010E94240FB3CF97012C5432407901B2
:103FF000B301CE01CB960E94DD10D0CF19A218A23A
:1040000083E691E09F8F8E8F1BA221968FAD219723
:104010008111D4C6F8011382128288EE93E0A0E0E9
:10402000B0E084839583A683B7838FE691E0918384
:104030008083128E118E1486D80112968D919C91D8
:10404000139790939A068093990614968D919D915B
:104050000D90BC91A02D80939B0690939C06A093FD
:104060009D06B0939E06F80180859185A285B38553
:1040700080939F069093A006A093A106B093A206FA
:10408000D8011C96E3EAF6E08D91819326E0E03BAF
:10409000F207D1F7D8015996ED91FC91F093B10652
:1040A000E093B006309709F4A5C68581882309F40A
:1040B000A1C663EB70E087E996E00E94DC1581E021
:1040C0008093D90267EA70E083EA95E00E941703C3
:1040D0006CE472E083EA95E00E945C146BE971E0A5
:1040E00083EA95E00E945C14109230031092520310
:1040F0000E946F048DE093E090935F0280935E02D4
:104100008EE093E090935D0280935C028CE080935C
:10411000B80088E60E94A3018BE690E00E94D906D1
:1041200090E080E00E94D90681E00E947D050E9417
:104130008E0288E60E94A3018CE190E00E94D906DD
:1041400088E090E00E94D90681E00E947D0588E623
:104150000E94A3018AE190E00E94D90683E090E0EA
:104160000E94D90681E00E947D0588E60E94A30195
:1041700085E790E00E94D90680E00E947D0561E01D
:1041800088E60E94AE041092A00380939F038823C8
:10419000E1F00E94900191E0883619F0823709F031
:1041A00090E09093A30265E371E083EA95E00E94BA
:1041B00017038091A30262E371E0811102C068E2FB
:1041C00071E083EA95E00E94DC15A7E3CA2EA1E026
:1041D000DA2E01E010E0F60191906F01892D0E9426
:1041E000A30180E290E00E94D90680E00E947D0554
:1041F000882309F403C661E671E083EA95E00E9432
:104200001703B80183EA95E00E94BE1466E571E0E9
:1042100083EA95E00E94DC150F5F1F4F0530110502
:10422000D1F60FE111E0E7E3CE2EE1E0DE2EF1EB77
:10423000EF2EF2E0FF2ED8016D917D918D919D9131
:104240008D0120E63DEA40EA5FE30E94073220E06C
:1042500030E040E752E40E940732F7016193719326
:10426000819391937F01C016D10629F78091250390
:10427000811116C060E082E00E942D0286ED92E07E
:10428000909305018093040180916900836080937D
:104290006900E89A68E671E083EA95E00E94DC151F
:1042A0006BE871E083EA95E00E94DC1563E871E059
:1042B00083EA95E00E94DC1560E089E00E94FF013E
:1042C00073EA272E72E0372E0E94C3022B013C01B5
:1042D00080912503882309F4BDC68091610288235B
:1042E00009F4D0C581508093610220E030E048E4B9
:1042F00053E46091090170910A0180910B01909142
:104300000C010E9436306B017C0120E030E04AEF66
:1043100054E40E94A33087FF06C0C12CD12C6AEF61
:10432000E62E64E4F62EC0920901D0920A01E092D2
:104330000B01F0920C0181E08093E9021092E802F7
:10434000C0900901D0900A01E0900B01F0900C019F
:1043500020E030E04AEF54E4C701B6010E94A330E8
:1043600087FD1FC620E030EC4AE556E4C701B601E0
:104370000E94023218163CF4C12C50ECD52E5AE59E
:10438000E52E56E4F52EC0920901D0920A01E09282
:104390000B01F0920C01C701B6010E94213170930C
:1043A000DB026093DA02E091600204E0E09FF0013A
:1043B0001124EF54FD4F80809180A280B38020E0D3
:1043C00030E0A901C501B4010E94023218160CF0B8
:1043D000EFC5A5019401C701B6010E94A8300E9453
:1043E00021317093E7026093E6028091E90288230D
:1043F00009F4E3C51092DC021092EA020E94012F38
:104400002EE130E040E050E00E94952F6C547F4F49
:104410007093DE026093DD020E94012F2AE030E0FB
:1044200040E050E00E94952F0E94523120E030E0A1
:1044300040E251E40E94A83023E333E343E551E432
:104440000E9437306093E2027093E3028093E402AB
:104450009093E5020E94012F2FE030E040E050E011
:104460000E94952F64576093DF0228EE39ED42E2F7
:1044700052E42093EB023093EC024093ED02509310
:10448000EE0282E193E0A4E9B2EC8093EF02909314
:10449000F002A093F102B093F2026091E6027091F3
:1044A000E70290E080E00E9450314B015C0123E381
:1044B00033E343E75FE30E9407326093F3027093B4
:1044C000F4028093F5029093F60288E08093FB0259
:1044D00081E08093FC020E94C3020E9450316B0174
:1044E0007C0120E030E04AEF54E40E94A8300E94B2
:1044F0007432E7966CAF7DAF8EAF9FAFE79720E049
:1045000030E046E153E4C501B4010E94A830E796CB
:104510002CAD3DAD4EAD5FADE7970E94073220E078
:1045200030E040EC5FE30E9407326093FD0270933D
:10453000FE028093FF029093000390910801809106
:10454000E902992309F47BC5811180C580E090E0E0
:10455000A0E0BFE38093010390930203A0930303C1
:10456000B093040320E030E04AEF53E4C701B60102
:104570000E94A8300E9474322DEC3CEC4CE45DE3C8
:104580000E94073220E030E040E85FE30E943730CD
:1045900060930503709306038093070390930803C9
:1045A00020E030EF42E556E46091090170910A0184
:1045B00080910B0190910C010E94A8306B017C014D
:1045C0000E94012F24E130E040E050E00E94952F4E
:1045D0006A507109810991090E9452314B015C01B5
:1045E00020E030E048E454E4C701B6010E940732FD
:1045F00020E030E048EC53E40E9437309B01AC01EE
:10460000C501B4010E9437306093090370930A0317
:1046100080930B0390930C030E94012F24E130E060
:1046200040E050E00E94952F6A507109810991097C
:104630000E9452314B015C0120E030E04DE454E433
:10464000C701B6010E94073220E030E04EEB53E490
:104650000E9437309B01AC01C501B4010E94373084
:1046600060930D0370930E0380930F0390931003D8
:104670000E94012F24E130E040E050E00E94952F9D
:104680006A507109810991090E9452314B015C0104
:1046900020E030E845E454E4C701B6010E94073247
:1046A00020E030E04DEC53E40E9437309B01AC0138
:1046B000C501B4010E943730609311037093120357
:1046C00080931303909314030E94012F24E130E0A0
:1046D00040E050E00E94952F6A50710981099109CC
:1046E0000E9452314B015C0120E030E84AE454E47E
:1046F000C701B6010E94073220E030E043EC53E4EA
:104700000E9437309B01AC01C501B4010E943730D3
:104710006093150370931603809317039093180307
:104720004092190350921A0360921B0370921C036B
:104730008091D902882309F4B9C18091D502909162
:10474000D602A091D702B091D80293018201081B32
:10475000190B2A0B3B0BD901C801C297A105B10562
:1047600008F483C14092D5025092D6026092D702DB
:104770007092D802E091B006F091B106309709F43A
:1047800074C18581882309F470C12AE0B301A201B4
:1047900087E996E00E946B146CE287E996E00E943C
:1047A00010034091DA025091DB0270E060E02AE0F1
:1047B00087E996E00E946B146CE287E996E00E941C
:1047C00010034091E6025091E70270E060E02AE0B9
:1047D00087E996E00E946B146CE287E996E00E94FC
:1047E00010036091DC0287E996E00E94B7146CE246
:1047F00087E996E00E9410036091EA0287E996E05B
:104800000E94B7146CE287E996E00E941003609161
:10481000DD027091DE0287E996E00E94BE146CE230
:1048200087E996E00E9410034091E2025091E30272
:104830006091E4027091E50221E030E087E996E0C2
:104840000E94DA156CE287E996E00E9410036091FD
:10485000DF0287E996E00E94B7146CE287E996E0F0
:104860000E9410034091EB025091EC026091ED0226
:104870007091EE0226E030E087E996E00E94DA15BA
:104880006CE287E996E00E9410034091EF0250919C
:10489000F0026091F1027091F20226E030E087E9C7
:1048A00096E00E94DA156CE287E996E00E94100318
:1048B0004091F3025091F4026091F5027091F6027A
:1048C00021E030E087E996E00E94DA156CE287E9A2
:1048D00096E00E9410034091F7025091F802609117
:1048E000F9027091FA0221E030E087E996E00E9437
:1048F000DA156CE287E996E00E9410036091FB02F2
:1049000087E996E00E94B7146CE287E996E00E947E
:1049100010036091FC0270E087E996E00E94BE14EB
:104920006CE287E996E00E9410034091FD025091ED
:10493000FE026091FF027091000323E030E087E9FE
:1049400096E00E94DA156CE287E996E00E94100377
:10495000409101035091020360910303709104039D
:1049600023E030E087E996E00E94DA156CE287E9FF
:1049700096E00E9410034091050350910603609158
:1049800007037091080323E030E087E996E00E9476
:10499000DA156CE287E996E00E9410036091E80264
:1049A00087E996E00E94B7146CE287E996E00E94DE
:1049B00010036091E90270E087E996E00E94BE145E
:1049C0006CE287E996E00E94100340910903509140
:1049D0000A0360910B0370910C0321E030E087E93A
:1049E00096E00E94DA156CE287E996E00E941003D7
:1049F00040910D0350910E0360910F0370911003CD
:104A000021E030E087E996E00E94DA156CE287E960
:104A100096E00E941003409111035091120360919F
:104A200013037091140321E030E087E996E00E94BF
:104A3000DA156CE287E996E00E94100340911503B5
:104A400050911603609117037091180321E087E9D4
:104A500096E00E94F4146BE971E087E996E00E9409
:104A60005C148091D902882309F18091D102909140
:104A7000D202A091D302B091D402A3019201281BCB
:104A8000390B4A0B5B0BDA01C901803D9740A10548
:104A9000B10560F04092D1025092D2026092D302EE
:104AA0007092D40287E996E00E942E118091CD0287
:104AB0009091CE02A091CF02B091D00293018201D9
:104AC000081B190B2A0B3B0BD901C8018897A105BC
:104AD000B10508F435C14092CD025092CE026092E9
:104AE000CF027092D0024091DA025091DB0270E066
:104AF00060E02AE083EA95E00E946B146CE283EAAE
:104B000095E00E9410034091E6025091E70270E0A8
:104B100060E02AE083EA95E00E946B146CE283EA8D
:104B200095E00E9410036091DC0283EA95E00E9408
:104B3000B7146CE283EA95E00E9410036091EA02E8
:104B400083EA95E00E94B7146CE283EA95E00E9444
:104B500010036091DD027091DE0283EA95E00E940D
:104B6000BE146CE283EA95E00E94100360E083EAE1
:104B700095E00E94B7146CE283EA95E00E9410036E
:104B80004091EB025091EC026091ED027091EE02C7
:104B900026E030E083EA95E00E94DA156CE283EAD1
:104BA00095E00E9410034091EF025091F002609155
:104BB000F1027091F20226E030E083EA95E00E9473
:104BC000DA156CE283EA95E00E9410034091F3024B
:104BD0005091F4026091F5027091F60221E030E00C
:104BE00083EA95E00E94DA156CE283EA95E00E9480
:104BF00010036091FB0283EA95E00E94B7146CE217
:104C000083EA95E00E9410034091FD025091FE025C
:104C10006091FF027091000322E030E083EA95E0AA
:104C20000E94DA156CE283EA95E00E94100340913D
:104C3000010350910203609103037091040322E089
:104C400030E083EA95E00E94DA156CE283EA95E0B1
:104C50000E941003409105035091060360910703E1
:104C60007091080322E030E083EA95E00E94DA15B3
:104C70006CE283EA95E00E9410036091E80283EA07
:104C800095E00E94B7146CE283EA95E00E9410035D
:104C90006091E90270E083EA95E00E94BE146CE244
:104CA00083EA95E00E9410034091090350910A03A2
:104CB00060910B0370910C0321E030E083EA95E0F2
:104CC0000E94DA156CE283EA95E00E94100340919D
:104CD0000D0350910E0360910F037091100321E0BA
:104CE00030E083EA95E00E94DA156CE283EA95E011
:104CF0000E9410034091110350911203609113031D
:104D00007091140321E030E083EA95E00E94DA1507
:104D10006CE283EA95E00E941003409115035091E4
:104D20001603609117037091180321E083EA95E060
:104D30000E94F4146BE971E083EA95E00E945C1430
:104D400080912503882311F40C946B2E84EF91E05D
:104D50004091C9025091CA026091CB027091CC027D
:104D600093018201041B150B260B370BB901A80117
:104D7000B0E0A0E0481759076A077B0790F040921F
:104D8000C9025092CA026092CB027092CC0289E0B2
:104D90000E94D60161E0892B09F060E089E00E9461
:104DA000FF0180E090E0892B09F48ECA0E94A503E0
:104DB000882309F485CA0E94000082CA27E1BE0147
:104DC000655C7F4FC4010E942816882309F422C91C
:104DD000CE01CB960E94240F49A95AA96BA97CA9A0
:104DE000C4010E94EC0CB401CE0101960E94DD10BA
:104DF000A701E5C866E970E00C943F1E62E0892DCA
:104E00000E94AE041092A00380939F03823058F159
:104E10000E9490017C010E94900198012D553D4F08
:104E200059013CEFE322FF2481E040E4E416F10461
:104E300009F080E0D5018C936FE471E083EA95E09E
:104E40000E941703B80183EA95E00E94BE14F501A1
:104E500080816AE471E0811102C06DE371E083EA50
:104E600095E00E94DC15892D0E94A30185E090E069
:104E70000E94D90690E080E00E94D90681E00E945D
:104E80007D05CAC9809108018823D9F10E94012FAC
:104E900024E030E040E050E00E94952F6B5F7F4FB0
:104EA0008F4F9F4F0E9452312091090130910A018A
:104EB00040910B0150910C010E9437306093090121
:104EC00070930A0180930B0190930C011092E902F8
:104ED0000091600211E0100F1093E80220E030E52D
:104EE00043E456E40E94023287FD2ACA053030F4BA
:104EF00084E0809361021093600222CA109208013C
:104F00001FCA0E94012F23E030E040E050E00E94E1
:104F1000952F6C5F7F4F8F4F9F4F0E9452319B01A7
:104F2000AC016091090170910A0180910B0190918F
:104F30000C010E9436306093090170930A0180933E
:104F40000B0190930C011092E9021091600221E094
:104F5000210F2093E80220E030E04AE755E40E9468
:104F6000A33018160CF4ECC9112399F083E0809358
:104F7000610211501093600280E090E0AAEFB5E466
:104F80008093090190930A01A0930B01B0930C0147
:104F9000D7C981E08093080180E090E8ABE3B5E4F5
:104FA000EFCFC12CD12C4AEFE42E44E4F42EEBC910
:104FB0001092E7021092E60218CA80910801882335
:104FC000F1F020E030E84BE355E4C701B6010E9460
:104FD000363020E030E040EA51E40E94A83020E082
:104FE00030E040E752E40E9437300E941A316536C3
:104FF000710514F064E670E06093DC02FDC9109264
:10500000DC02A701960160E070E08AEF95E40E945F
:10501000363020E030E040E751E40E94A83020E044
:1050200030E040EF51E40E9437300E941A3165367B
:10503000710514F064E670E06093EA02DFC9811143
:1050400005C08AE999E9A9E1BFEB84CA80E090E054
:10505000DC0180CA8091210390912203A091230357
:10506000B091240393018201081B190B2A0B3B0BFF
:10507000D901C8018897A105B10508F48FC04092F5
:10508000210350922203609223037092240383EA47
:1050900095E00E949903892B29F083EA95E00E940C
:1050A0007703F5CF61E483EA95E00E94DB030E9479
:1050B000C3026B017C0102E612E020163106D1F03A
:1050C0000E94C3026C197D098E099F096333710523
:1050D0008105910508F062C083EA95E00E9499037A
:1050E000892B59F383EA95E00E947703D8018D93C9
:1050F0008D01E3CF809170029091710298278927EA
:1051000098279093DB028093DA022091690228525B
:10511000330B49E0429FC001439F900D112465E08D
:1051200070E00E940830605E7F4F7093DE026093F3
:10513000DD026091780270E090E080E00E945231E0
:1051400023E333E343E250E40E94A8300E9421317C
:105150006093DC0260916B0270E090E080E00E945E
:10516000523120E030E040E251E40E94A8306093E8
:10517000E2027093E3028093E4029093E50280914F
:105180006C028093DF0280916602909167029827FB
:10519000892798279093E1028093E00280E480932E
:1051A0007C0080917A00806480937A0080917A00FC
:1051B00086FDFCCF2091780030917900A4E6B0E024
:1051C0000E94E92F2FEF33E040E050E00E94952F3E
:1051D0002093EA028091A302882309F485C088E61F
:1051E0000E94A3018BE390E00E94D90680E00E9418
:1051F0007D0566E088E60E94AE041092A0038093CD
:105200009F03863008F470C00E949001182F0E94FE
:105210009001E9961FAFE997E8961FAEE897E996E7
:10522000EEACFFACE997E82AF92A0E949001182F0A
:105230000E949001EB961FAFEB97EA961FAEEA979C
:10524000EB96CEACDFACEB97C82AD92A0E9490012E
:10525000B82E0E9490018C01B701FF0C880B990BAE
:105260000E94523120E030E040E059E30E940732D2
:105270006093FD027093FE028093FF0290930003FF
:10528000B601DD0C880B990B0E94523120E030E012
:1052900040E059E30E9407326093010370930203D8
:1052A0008093030390930403ED96BFAEED97EC96C5
:1052B0001FAEEC97ED966EAD7FADED97602B712B29
:1052C000072E000C880B990B0E94523120E030E031
:1052D00040E059E30E940732609305037093060390
:1052E000809307039093080388E0E7E1F1E0DE0193
:1052F000119601900D928A95E1F734EAE32E32E09F
:10530000F32E10E000E0F70181917F01882309F47A
:105310005BC0F801E95CFE4FD0808D2D0E94A30197
:1053200090E080E00E94D90680E00E947D05811116
:105330004BC062E08D2D0E94AE041092A0038093BA
:105340009F03823008F440C00E949001B82E0E9452
:105350009001F801EE0FFF1F21E030E02C0F3D1F00
:10536000E20FF31FC080D180EF96BFAEEF97EE96AD
:105370001FAEEE97EF964EAD5FADEF97842B952B5A
:10538000BC01990F880B990B0E94523120E030E04C
:1053900040E85DE30E94073220E030E040E151E464
:1053A0000E94073220E030E040EA50E40E94A8303A
:1053B00020E030E040E052E40E943730D6016D93A7
:1053C0007D938D939C9313970F5F1F4F04301105AE
:1053D00009F099CF85E00E94D60121E0892B09F0E0
:1053E00020E02093E902F894C090AD02D090AE0284
:1053F000E090AF02F090B0021091AC021092AC02BB
:105400007894F8940E9469028090A8029090A90272
:10541000A090AA02B090AB027894681979098A0921
:105420009B09613A76488140910510F4111131C110
:105430001092E7021092E6028091E902811110C0F9
:105440000091E6021091E7020330110548F06091E7
:10545000DA027091DB026032E3E07E0708F038C1C7
:105460001092E80280911D0390911E03A0911F03EA
:10547000B091200393018201081B190B2A0B3B0BEF
:10548000D901C801883C9105A105B10508F448C9B6
:1054900040921D0350921E0360921F0370922003DE
:1054A00082E0D82E01E082EB96E00E945207892B21
:1054B00009F456C382EB96E00E946807182F80918A
:1054C000760790917707A0917807B09179070196B8
:1054D000A11DB11D8093760790937707A09378075D
:1054E000B0937907143209F41AC3E09170071532AA
:1054F0000CF02EC11A3019F01D3009F01DC3EF3029
:1055000008F0B3C1F0E0E15AF84F108280915E07D5
:10551000882309F4B8C120915F07822F022E000C66
:10552000990B3FEB320F363008F01EC1C7978295BA
:10553000807F90916007292F092E000C330B4FEBD1
:10554000490F463008F018C127533109820F909156
:105550005D07891377C18091820790918307A0919D
:105560008407B09185070196A11DB11D8093820724
:1055700090938307A0938407B09385078091710768
:10558000882399F080917A0790917B07A0917C07FE
:10559000B0917D070196A11DB11D80937A0790936C
:1055A0007B07A0937C07B0937D07F0906E07FF20E8
:1055B00009F4EBC021E0F21244C08BEF96E00E94A8
:1055C000FF1289E097E00E94FF1280917107882303
:1055D000C1F187E0E1EEF6E0A3EDB6E001900D92B7
:1055E0008A95E1F787E0E8EEF6E0AAEDB6E00190F3
:1055F0000D928A95E1F78091F1069091F2069093D1
:10560000F0068093EF068091F5069091F606909350
:10561000F4068093F3060E94C3026093F70670932A
:10562000F8068093F9069093FA06F092D206F0926B
:10563000D10687E197E00E94E81285E297E00E9498
:10564000E812E0907407F0907507E114F10409F492
:105650000CC1E0917407F091750766A177A1D7019D
:1056600096968D919C910E944634892B09F0FDC03D
:10567000B701C70140960E944F340E94C302F70150
:1056800060A371A382A393A305A304A3E2A4F3A43C
:10569000DCCFC114D104E104F10409F4CDCEC7017B
:1056A000B6010E9450319B01AC0160E074E284E7D6
:1056B00099E40E94A83023E333E345E851E40E94D3
:1056C000A8300E9421317093E7026093E602B4CEC5
:1056D00090E080E00E9450316B017C01B80190E0C5
:1056E00080E00E9450319B01AC01C701B6010E94CD
:1056F000A8306B017C0101EB12E0E5961FAF0EAF05
:10570000E59710E0E596AEADBFADE5978D909D9025
:10571000AD90BD90E596BFAFAEAFE5971F5FA50119
:105720009401C701B6010E9436309F77A50194010C
:105730000E94A8302DEC3CEC4CEC5DE30E94A330C1
:1057400018161CF01093E8028DCE1630D9F688CECC
:105750001A3209F4D4CE1C3209F0EEC180915D07F3
:10576000812780935D07CBCE2156263018F48755CC
:105770009109DDCEC097DBCE9156963018F42755AF
:105780003109E4CE20533109E1CE89E097E00E944F
:10579000FF12809171078823A1F187E0E1EEF6E026
:1057A000A3EDB6E001900D928A95E1F787E0E8EE6F
:1057B000F6E0AAEDB6E001900D928A95E1F78091AE
:1057C000F1069091F2069093F0068093EF06809197
:1057D000F5069091F6069093F4068093F3060E94E6
:1057E000C3026093F7067093F8068093F9069093CE
:1057F000FA060093D2060093D10683E397E00E9455
:10580000E81280914B0790914C07A0914D07B09101
:105810004E078093470790934807A0934907B0939A
:105820004A070E94C3026093430770934407809322
:1058300045079093460700934207009341078FE482
:1058400097E0FDCE80917E0790917F07A091800721
:10585000B09181070196A11DB11D80937E079093A1
:105860007F07A0938007B093810780916F078F5FB8
:1058700080936F071092700781E01A3209F080E080
:1058800080935E0710CE90916F07911144C0809174
:105890005F078734E9F560916007062E000C770BEF
:1058A0008DEA91E00E943B34892B91F163EB71E02A
:1058B00081E697E00E944634892BF9F400936E0745
:1058C0008091720790917307909375078093740786
:1058D000E0907407F0907507E114F10431F26FE580
:1058E00077E0D70196968D919C910E94463497FF60
:1058F00010C2F70182A593A5E7CF67EB71E081E6BF
:1059000097E00E944634892B19F410926E07D8CF85
:10591000D0926E07D5CFE0916E07E23009F44BC00C
:1059200080915F07882309F446C020E2E29FF001DE
:105930001124E92B3197EC32F10508F03CC0ED550C
:10594000F34D0C941C30CF2C132D1A2D212D242D0A
:10595000522D602D6D2D7A2DDB2CDB2CDB2CDB2CDE
:10596000DB2CDB2CDB2CDB2CDB2CDB2CDB2CDB2CFF
:10597000DB2CDB2CDB2CDB2CDB2CDB2CDB2CDB2CEF
:10598000DB2CDB2CDB2CCF2C0C2D132D1A2D212DF9
:10599000242D2B2D382D452DDB2CDB2C872D8FE551
:1059A00097E00E94091460930F077093100780938B
:1059B000110790931207E0907407F0907507C0905C
:1059C0006F07E114F10409F450CFE0917407F091EE
:1059D000750766A177A1D70196968D919C910E943B
:1059E0004634892B09F041CFF70120A531A58C2D34
:1059F00090E0821793070CF438CF2817390739F451
:105A00004FE050E06FE577E0C7010E945634D701C0
:105A10009A96ED90FC90D3CF91E0813409F090E01C
:105A200090937107C8CF61EE76E08FE597E00E9412
:105A30008213C1CF91E0833509F090E09093E7069F
:105A4000BACF68EE76E0F1CF91E0873509F090E0CB
:105A50009093EE06B0CF8FE597E00E940914609313
:105A60002107709322078093230790932407A3CFE5
:105A70008FE597E00E94091460932F077093300719
:105A8000809331079093320796CF8FE597E00E947D
:105A9000592F609301077093020780930307909337
:105AA000040789CF91E081330CF490E09093710763
:105AB000082E000C990B9093F2068093F1067BCF91
:105AC0008FE597E00E94592F60934B0770934C0726
:105AD00080934D0790934E076ECF8FE597E00E941D
